:020000040800F2
:10000000F804002001010008B7110008E110000801
:10001000B5110008B90100083914000800000000FB
:100020000000000000000000000000009B1300081A
:10003000BB01000800000000D91100089D13000852
:100040001B0100081B0100081B0100081B01000820
:100050001B0100081B0100081B0100081B01000810
:100060001B0100081B0100081B0100081B01000800
:100070001B0100081B0100081B0100081B010008F0
:100080001B0100081B0100081B0100081B010008E0
:100090001B0100081B0100081B0100081B010008D0
:1000A0001B0100081B0100081B0100081B010008C0
:1000B0001B0100081B0100081B0100081B010008B0
:1000C0001B0100081B0100081B010008DD110008CE
:1000D0001B0100081B0100081B0100081B01000890
:1000E0001B0100081B0100081B010008DFF80CD0F1
:1000F00000F02AF80048004763150008F8040020C3
:100100000648804706480047FEE7FEE7FEE7FEE7B1
:10011000FEE7FEE7FEE7FEE7FEE7FEE7F113000875
:10012000ED000008D2B201E000F8012B491EFBD21D
:1001300070470022F6E710B513460A4604461946F2
:10014000FFF7F0FF204610BD064C074D06E0E068C3
:1001500040F0010394E8070098471034AC42F6D30E
:10016000FFF7C8FF40180008601800082DE9F041AB
:1001700015460E460446012A19D90E4F00221021B9
:10018000384600F05CF944F0800001F051F800249A
:1001900004E0305D01F04CF8641CE4B2AC42F8D3EA
:1001A0003846BDE8F0410122102100F048B9BDE811
:1001B000F081000000080140FEE7704710B590F89C
:1001C00021100024022903D00421816301243DE091
:1001D00001680A6822F00E020A6001680A6822F0CB
:1001E00001020A601A4A0168914201D1012121E00D
:1001F000174A1432914201D110211BE0144A2832CF
:10020000914201D1891515E0114A3C32914201D148
:1002100089140FE00E4A5032914202D14FF48031DE
:1002200008E00B4A6432914202D14FF4801101E0A0
:100230004FF08071064A083A5160012180F8211080
:10024000002180F82010416B01B18847204610BD85
:100250000800024070B5044600F0F6F80546601C40
:1002600002D004480078044400F0EEF8401BA0429D
:10027000FAD370BD0C0000202DE9F84FDFF890A1F3
:1002800000220AF1040B144601274FF00F090BF16D
:10029000040E00BF0B6807FA04F52B40AB4274D183
:1002A000DFF870C14E68A6EB0C0866452BD00DDC5C
:1002B000032E34D005DC36B3012E19D0022E2FD1F7
:1002C0001BE0112E16D0122E2AD119E0B8F5881F86
:1002D00019D006DCB8F5803F15D0B8F5801F1FD1C6
:1002E00011E0B8F5001F0ED0B8F5041F18D10AE0D0
:1002F000CA6815E0CA68121D12E0CA6808320FE029
:10030000CA680C320CE08A682AB1012A4FF0080250
:1003100003D0456104E0042202E0056100E0002210
:10032000FF2B01D8064601E000F104064FEA8405E0
:1003300001D9A5F12005D6F800C009FA05F82CEA84
:10034000080C02FA05F54CEA050CC6F800C04D6829
:10035000ED0057D5304DAE6946F00106AE61AD698E
:1003600024F0030605F0010500952C4D06EB050C65
:10037000DCF80850A6074FEA167809FA08F6B543E4
:10038000274EB04202D1002610E03BE0254EB0429D
:1003900001D101260AE0244EB04201D1022605E037
:1003A000224EB04201D1032600E0042606FA08F6E8
:1003B0002E43CCF808604D68DAF80060ED0355462E
:1003C00001D51E4300E09E432E604D68DBF80060BF
:1003D000AD035D4601D51E4300E09E432E604D688F
:1003E000DEF80060ED02754601D51E4300E09E4335
:1003F0002E604D68AD020E4D2E6801D51E4300E003
:100400009E432E60641C102CFFF444AFBDE8F88FAF
:1004100000040140000011100010024000000140E3
:1004200000080140000C0140001001400014014090
:100430000C0401408068084000D0012070470AB1D8
:10044000016170470904FBE70148806870470000BC
:100450000C000020024881680278114481607047D6
:100460000C000020074810B5016841F01001016040
:10047000032000F073F8002000F006F800F024F8E4
:10048000002010BD0020024070B50D4D04464FF411
:100490007A712878B1FBF0F00A490968B1FBF0F0F5
:1004A00000F00AFE48B9102C07D200222146501E47
:1004B00000F034F800206C6070BD012070BD0000B9
:1004C0000C000020180000200C4808B5816941F09C
:1004D00001018161816901F001010091C16941F06F
:1004E0008051C161C06900F08050009004484168AB
:1004F00021F0E06141F00071416008BD0010024050
:100500000000014000F01F020121914040098000DD
:1005100000F1E020C0F8001170470000F0B40E4B6D
:100520001B680C46C3F30223C3F10705042D00D951
:100530000425191D072901D2002300E0DB1E012636
:1005400006FA05F1491E214099409E40761E16404C
:100550003143F0BC00F030BE0CED00E0064900F085
:10056000070208684FF6FF03184040EA0220034ADA
:1005700010430860704700000CED00E00000FA0531
:100580002DE9F047DFF8548105460E46D8F8000003
:1005900000F00700B0420CD2D8F8001021F007019B
:1005A0003143C8F80010D8F8000000F00700B0424E
:1005B0006FD128684A4C810712D5400703D560687F
:1005C00040F4E06060602878000703D5606840F47C
:1005D000605060606068A96820F0F00008436060C7
:1005E0002878C00744D06868012816D021680228FE
:1005F00016D0890700294CDA616821F00301014314
:100600006160FFF721FF6968074641F288300129E0
:100610000ED00229814618D026E021688903E9E737
:100620008901E7E7FFF710FFC11B494501D918E031
:1006300081466068C0F381000128F3D118E000BF53
:10064000FFF702FFC11B49450BD86068C0F381006A
:100650000228F5D10CE000BFFFF7F6FEC11B4945AB
:1006600002D90320BDE8F087606810F00C0FF3D1C9
:10067000D8F80010404601F00701B1420BD90168DB
:1006800021F0070131430160006800F00700B0422B
:1006900001D00120E6E72878400705D56068E968C1
:1006A00020F4E060084360602878000706D56068A1
:1006B000296920F4605040EAC100606000F016F83B
:1006C0006168084AC1F30311515CC84006490860DB
:1006D0000020FFF7D9FE0020C4E700000020024000
:1006E00000100240301800081800002012A185B048
:1006F0000FC98DE80F0014A0144A006804905168D7
:10070000134801F00C03042B10D0082B0ED1C1F3B9
:100710008343C9031DF803000AD5516804AAC1F335
:100720004041515C0A4A5043B0FBF1F005B07047BC
:1007300008494843FAE700000203040506070809D0
:100740000A0B0C0D0E0F10100102000000100240E9
:1007500000127A0000093D002DE9F84F04460078A8
:10076000B94DC00748D06868C0F38100012807D0A0
:100770006868C0F38100022809D16868C00306D503
:100780002868800338D5606800286FD034E060683E
:10079000B0F5803F0BD010B1B0F5A02F11D0286874
:1007A00020F480302860286820F4802002E0286847
:1007B00040F480302860606888B1FFF745FE064647
:1007C00009E0286840F480202860F0E7FFF73CFE4D
:1007D000801B642875D828688003F7D50CE0FFF7E4
:1007E00033FE064605E000BFFFF72EFE801B64289F
:1007F000F0D828688003F7D42078944E80074FF013
:1008000001094FF000083BD5686810F00C0F07D0C5
:100810006868C0F38100022809D16868C00306D463
:100820002868800714D5206901281FD110E02069AD
:10083000B0B1C6F80090FFF707FE074605E000BF1D
:10084000FFF702FEC01B0228C4D828688007F7D52E
:100850002868616920F0F80040EAC10028600FE0D4
:10086000C6F80080FFF7F0FD074606E0E9E000BFAC
:10087000FFF7EAFDC01B022823D828688007F7D4B9
:10088000207800072CD57248A169D9B1C0F8009032
:10089000FFF7DAFD074604E0FFF7D6FDC01B02288C
:1008A0000FD8686A8007F7D56A484FF4FA51006894
:1008B000B0FBF1F0009000BF0098411E0091FAD209
:1008C0000EE080E0C0F80080FFF7BEFD074604E0C0
:1008D000FFF7BAFDC01B022875D8686A8007F7D4F5
:1008E0002078400760D5E8690027C00008D4E8698F
:1008F00040F08050E861E869012700F080500090E6
:1009000055480168C90513D40168834641F48071D4
:100910000160FFF799FD824606E000BFFFF794FDF6
:10092000A0EB0A0064284ED8DBF80000C005F5D51E
:10093000E06801280AD008B1052813D0286A20F001
:1009400001002862286A20F0040002E0286A40F0D2
:1009500001002862E06841F2883B98B1FFF774FD1E
:1009600082460BE0286A40F004002862EEE700BFF0
:10097000FFF76AFDA0EB0A0159455AD8286A80079B
:10098000F6D50CE0FFF760FD824605E0FFF75CFD61
:10099000A0EB0A0159454CD8286A8007F6D41FB14C
:1009A000E86920F08050E861E06988B36968C1F3C4
:1009B0008101022945D00228C6F8608004D0FFF7E3
:1009C00043FD044638E034E0FFF73EFD074604E00F
:1009D000FFF73AFDC01B02282BD828688001F7D406
:1009E000206AB0F5803F05D16868A16820F4003026
:1009F00008436860D4E908010843696821F4741168
:100A000008436860C6F86090FFF71EFD044606E0E4
:100A100015E000BFFFF718FD001B022809D8286861
:100A20008001F7D50BE000BFFFF70EFD001B022889
:100A300002D90320BDE8F88F28688001F4D4002093
:100A4000F8E70120F6E700000010024000004242F3
:100A500080044242180000200070004070470000EF
:100A600038B504460068426881684B0605D4CB0758
:100A700003D0530601D5216C04E08B0707D513067C
:100A800005D5616C01B02046BDE83040084711F043
:100A9000600F3FD093063DD54B060AD594F85130F0
:100AA000032B34D0636D43F004036365C36883682C
:100AB0000093890609D5616D41F001016165816886
:100AC0000091016821F040010160606D002821D093
:100AD0002068416821F0E0014160012084F8510064
:100AE000900718D02068416821F0030141600C4D47
:100AF000E06C18B14563E06CFFF760FBA06C002868
:100B000008D04563A06CBDE83840FFF757BBC1680B
:100B10008068009038BD2046FFF7A0FF38BD000078
:100B2000F512000870B5040005D00025A56294F800
:100B3000510010B104E0012070BD204600F034F8EF
:100B4000022084F851002068016821F04001016012
:100B5000D4E901010843D4E9031211430843616950
:100B60000843218B01F400710843E1690843216ABD
:100B70000843A16A084321680860A069042101EACA
:100B80001040616A0843216848602168E06A086192
:100B90002068C16921F40061C1616565012084F8A4
:100BA0005100002070BD000030B585B000240094D5
:100BB0000194029403940068184988422BD1184884
:100BC000816941F480518161816901F4805104910E
:100BD000816941F0040181618069124D00F00400D7
:100BE0000490A02000900220019003200390694609
:100BF0002846FFF741FB4020CDE90004694628461E
:100C00000294FFF739FB002211462320FFF786FCF0
:100C10002320FFF777FC05B030BD00000030014015
:100C200000100240000801402DE9F84F04464068DA
:100C30000026984617460D464FF00409B0F5827F0E
:100C400001D1A06890B194F85000012819D04FF05C
:100C5000010B84F850B0FFF7F7FB009094F85100B7
:100C60004FF0000A01280ED002267FE084F8519050
:100C700013460A462046CDF8008000F031F9BDE861
:100C8000F88F0220FBE7002D6FD0002F6DD084F885
:100C90005190C4F854A0A563A787E787C4F830A093
:100CA000A4F834A0A4F836A0C4F840A0C4F844A026
:100CB000A0684FF40047B84204D12068016821F4CD
:100CC0008041016020680168490603D4016841F051
:100CD00040010160E068B8B133E020688168C9076D
:100CE00006D0007B05F8010BE08F401EE0870BE08B
:100CF000B8F1000F23D0B8F1FF3F05D0FFF7A4FBF8
:100D00000099411A41451AD2E08F0028E5D11BE035
:100D100020688168C90706D0C06825F8020BE08FFB
:100D2000401EE0870DE0B8F1000F08D0B8F1FF3F9A
:100D300007D0FFF789FB0099411A414501D30326EB
:100D400014E0E08F0028E3D16068B0F5827F0AD11B
:100D5000A068B84202D0B0F5806F04D12068016865
:100D600021F040010160606D00B1012684F851B0AE
:100D700084F850A0304682E72DE9F84F044690F8F9
:100D800050000026994617460D4601280DD04FF019
:100D9000010B84F850B0FFF757FB804694F85100E0
:100DA000B246012804D0022694E00220BDE8F88F64
:100DB000002D7BD0002F79D0032084F85100C4F897
:100DC00054A02563A786E786C4F838A0A4F83CA001
:100DD000A4F83EA0C4F844A0C4F840A0A068B0F5B0
:100DE000004F04D12068016841F48041016020680F
:100DF0000168490603D4016841F040010160E068E0
:100E0000B0F5006F606804D030B3E08E012823D0C5
:100E10003EE010B1E08E01281AD135F8021B20689F
:100E200005E020688168890706D535F8021BC16096
:100E3000E08E401EE0860BE0B9F1000F34D0B9F12E
:100E4000FF3F05D0FFF700FBA0EB080149452BD27F
:100E5000E08E0028E5D11EE0216815F8010B08732B
:100E600006E020688168890706D515F8011B017323
:100E7000E08E401EE0860BE0B9F1000F14D0B9F10E
:100E8000FF3F05D0FFF7E0FAA0EB080149450BD280
:100E9000E08E0028E5D14B46012202212046CDF804
:100EA000008000F02FFA10B1032613E011E0424653
:100EB0004946204600F00EFA18B101262020606550
:100EC00008E0A06818B92068C16880680090606D6B
:100ED00000B1012684F851B084F850A0304665E78F
:100EE0002DE9F84F044690F8500000260A9F9A46D4
:100EF00093460D464FF0010801280ED0012084F8DA
:100F00005000FFF7A1FA814694F85100616801286A
:100F10000CD0B1F5827F07D102E00220BDE8F88F46
:100F2000A16809B9042801D00226BDE055B1BBF182
:100F3000000F07D0BAF1000F04D094F85100012837
:100F400002D004E00126AFE0052084F85100002023
:100F50006065C4F838B0A4F83EA0A4F83CA02563AE
:100F6000A4F836A0A4F834A0206460642068016866
:100F7000490603D4016841F040010160E068B0F522
:100F8000006F606804D0E8B3E08E01283BD06AE0CF
:100F900010B1E08E01282ED1216835F8020BC8600F
:100FA000E08E401EE08626E0B8F1000F0DD0E08E06
:100FB00058B120688168890707D535F8021BC160E0
:100FC000E08E401EE0864FF00008E08F58B12068A8
:100FD0008168C90707D0C0682BF8020BE08F401E5C
:100FE000E0874FF00108781C05D0FFF72DFAA0EB41
:100FF0000900B84246D2E08E0028D5D1E08F002803
:10100000D2D136E0FFE7216815F8010B0873E08EB6
:10101000401EE08627E000BFB8F1000F0DD0E08E43
:1010200058B120688168890707D515F8011B01733D
:10103000E08E401EE0864FF00008E08F58B1206837
:101040008168C90707D0C0680BF8010BE08F401E0C
:10105000E0874FF00108781C05D0FFF7F5F9A0EB09
:101060000900B8420ED2E08E0028D5D1E08F0028CA
:10107000D2D13B46012202212046CDF8009000F05B
:1010800041F908B103260FE04A463946204600F0F0
:1010900021F918B101262020606505E0A06818B983
:1010A0002068C16880680090012084F85100002009
:1010B00084F85000304631E710B5401EB0F1807F13
:1010C00001D3012010BD4FF0E02460610F216017B3
:1010D00000F072F80020A06107202061002010BD00
:1010E000FEE700002DE9F04186B00024204800947E
:1010F000019402940394816941F010018161816936
:1011000001F010010491816941F020018161816940
:1011100001F020010491816941F00401816180693D
:10112000144F00F004004FF40055049000222946AB
:101130003846FFF784F9DFF8408000221E21404640
:10114000FFF77DF90095022601250396CDE90154AC
:1011500069463846FFF790F81E20CDE90005CDE935
:10116000024669464046FFF787F806B0BDE8F081C1
:101170000010024000100140000801400C480B49DB
:101180004FF4007201604FF4827141600021816070
:10119000C1600161C0E905123822C0E9072141623E
:1011A00081620A21C162FFF7BDBC0000003001402E
:1011B0001C000020FEE770470907090E002806DA28
:1011C00000F00F0000F1E02080F8141D704700F1DE
:1011D000E02080F800147047704700000148FFF7D6
:1011E0003FBC00001C0000202DE9F04115460E46D2
:1011F0000446012A18D90D4F002210213846FFF766
:101200001EF9204600F014F8002404E000F032F843
:101210003055641CE4B2AC42F8D33846BDE8F04126
:1012200001221021FFF70BB9BDE8F0810008014051
:1012300001B5002210210548FFF701F90A23012218
:1012400069460348FFF798FD08BD0000000801400B
:101250001C00002010B5FFF7EBFF00F00BF8044670
:10126000012210210248FFF7EAF8204610BD0000D5
:101270000008014008B500208DF80000024610214A
:101280000548FFF7DCF80A23012269460348FFF707
:10129000CBFC9DF8000008BD000801401C000020A8
:1012A00070B50B4D0E460446002210212846FFF76C
:1012B000C6F844F08000FFF7BBFF3046FFF7B8FFE9
:1012C0002846BDE8704001221021FFF7B8B80000A1
:1012D0000008014038B50B460092044600228021E8
:1012E00000F010F8002804D0606D40F02000606528
:1012F000032038BD10B5406A0021C187C186FFF7C1
:10130000ADFB10BD2DE9F0411D4617460E460446C3
:10131000DDF8188035E0681C33D02DB1FFF794F864
:10132000A0EB0800A8422CD32068416821F0E0011E
:1013300041606068B0F5827F0BD1A068B0F5004FC6
:1013400002D0B0F5806F04D12068016821F040011F
:101350000160A06AB0F5005F0AD1206801684DF60F
:10136000FF72114001602068016841F40051016082
:10137000012084F85100002084F850000320BDE8CB
:10138000F0812068806836EA000004D00020B8426E
:10139000C1D10020F3E70120F9E77047FFF75AB801
:1013A00030B58FB028216846FEF7C3FE14210AA885
:1013B000FEF7BFFE01210804CDE9001000240294CD
:1013C00002250491CDE907504FF4E01009906846DA
:1013D000FFF7C2F90F20CDE90A056802CDE90C40FC
:1013E00002210AA80E94FFF7CBF80FB030BD000021
:1013F0000D48016841F00101016041680B4A11404C
:10140000416001680A4A11400160016821F48021AD
:101410000160416821F4FE0141604FF41F018160C9
:101420000449C00308607047001002400000FFF844
:10143000FFFFF6FE08ED00E0FEE700000FB4084BEA
:1014400010B504A902AA039800F01BF8044602A9EB
:10145000002000F081F8204610BC5DF814FB00006D
:101460005915000802E008C8121F08C1002AFAD165
:1014700070477047002001E001C1121F002AFBD114
:1014800070472DE9F84F9946924688460546002751
:1014900006E025280AD051464A4690476D1C7F1C1D
:1014A00028780028F5D13846BDE8F88F002315F8D4
:1014B000011F18462E2915D115F8011F04232A29CA
:1014C0000DD06FF02F022978A1F13004092C09D832
:1014D00000EB800002EB400008446D1CF3E758F875
:1014E000040B6D1C2A78002ADDD0632A07D0732AEA
:1014F0000FD0104651464A4690477F1C2AE018F804
:10150000042B8DF8002000218DF801106E4601217A
:1015100003E058F8046B4FF0FF315A074FF0000416
:1015200001D409E0641C84420BDA8C42FADB325DA0
:10153000002AF7D105E0641C8C42FCDB305D0028FA
:10154000F9D1274404E016F8010B51464A4690476A
:10155000641EF8D26D1CA3E70A68531C0B60107060
:101560007047FEF77FFFFFF71BFFFFF7BBFDFFF79D
:1015700005FE00F001F8FCE70020244C01260621BE
:101580006081E071A07126706070A070E170072129
:1015900021711F4F60710246750329463846FEF7D8
:1015A0004EFF4FF4FA784046FEF754FE01222946DA
:1015B0003846FEF744FFDFF85C90002202214846DF
:1015C000FEF73DFF0A20FEF745FE012202214846B4
:1015D000FEF735FF00F02EF800F0ACF8A67100F031
:1015E000E1F80028FAD00C4A0CA11148FFF726FFB9
:1015F000012229463846FEF722FF4046FEF72AFE22
:10160000002229463846FEF71AFFE7E700000020CF
:101610000010014000080140B400002052656365DD
:1016200069766520446174612025730A000000001A
:101630007400002070B500F0E7F80A20FEF70AFEFB
:1016400000F070F8324833490322007800EB400084
:1016500001440620FEF78AFD2F492E480978C01C58
:10166000415C0920FFF71CFE0B210846FFF718FE1E
:1016700023210C20FFF714FE284D264C28492878FA
:10168000E41D0978225CE01D0726405C062A23D071
:10169000022101EB0010C1B21D20FFF701FE2878E6
:1016A000205C06EB0010C1B25FF01E00FFF7F8FDF2
:1016B000FF211F20FFF7F4FD00212020FFF7F0FDA0
:1016C0000C212120FFF7ECFD01214120FFF7E8FD6F
:1016D000BDE8704000F09CB8032101EB0010C1B2DE
:1016E0001D20FFF7DDFD2878205C06EB0010C1B25D
:1016F0001E20FFF7D5FD3120FFF7ACFD00F0F8000C
:1017000040F005013120FFF7CBFD0C213720CDE75C
:10171000010000201818000802000020030000202B
:101720000400002088210120FFF7BABDFF2112200C
:10173000FFF7B6BD10B5FFF77DFF84214D20FFF701
:10174000AFFDFF212420FFF7ABFD01214020FFF773
:10175000A7FD3F211120FFF7A3FDFFF7E7FF802141
:101760003020FFF79DFD15212220FFF799FD0F2066
:10177000FFF770FD01460D20FFF792FD8D2101203E
:10178000FFF78EFD064C002020801820FFF762FD39
:10179000400702D420880328F7D3002010BD0000A2
:1017A0000A00002010B504211348FEF743FE00286C
:1017B0001FD00020114902460A54401CC0B2202804
:1017C000FAD31020FFF746FD01460D20FFF768FD14
:1017D0000C490B480978405C06280BD01320FFF712
:1017E00039FD024605490020FFF7FEFCFFF79EFF8A
:1017F000012010BD1522F5E700080140B4000020CB
:101800001F1800080300002008210120FFF748BD31
:1018100009210120FFF744BD6C8000FFFCF9F606AA
:101820000708090A0B0C0001020304050607080952
:101830000000000000000000010203040607080980
:1018400060180008000000201C000000641400085C
:101850007C1800081C000020DC0400007414000840
:101860000000000000000000000000000100000077
:0C187000100000000000000000A24A046C
:04000005080000ED02
:00000001FF
